:1001180010082020202020202020202020205444A7
:0201280048008D
:0A00EA00C2A18FB0D2A27F017E00F8
:1000F400E4FDFCC3ED9FEC9E5019758901758CFCE1
:10010400758A18D28C308DFDC28DC28C0DBD000154
:030114000C80E07C
:0101170022C5
:0C012B00C2A01200EAC2A27F050200F48C
:0C013700D2A01200EAC2A27F050200F470
:10008F00E4FBFA74082BF8E6FF1201370BBB0001F3
:10009F000AEB64104A70EC7FF47E011200F47F01CA
:1000AF0012012B850827E4FAFB74092BF8E6FF747D
:1000BF00182BF8A6070BBB00010AEB640F4A70E977
:1000CF00E4FAFB74182BF8E6FF74082BF8A6070B5D
:0A00DF00BB00010AEB64104A70E94F
:0100E90022F4
:0C0143007F3812012B7F0C12012B80FE74
:03000000020003F8
:0C000300787FE4F6D8FD75812702004AE2
:10000F00020143E493A3F8E493A34003F68001F2C3
:10001F0008DFF48029E493A3F85407240CC8C333F2
:10002F00C4540F4420C8834004F456800146F6DFC1
:10003F00E4800B0102040810204080900118E47E38
:10004F00019360BCA3FF543F30E509541FFEE493B6
:10005F00A360010ECF54C025E060A840B8E493A37D
:10006F00FAE493A3F8E493A3C8C582C8CAC583CAA8
:10007F00F0A3C8C582C8CAC583CADFE9DEE780BE60
:01012A0000D4
:00000001FF
