:0A00B4000808FF807777777780FF58
:10008F00E4FFFEAD07A8057480088002C313D8FCF7
:10009F00F5B074082FF8E6F5A00FBF00010EEF645E
:0400AF00084E70DFA8
:0100B300222A
:0500BF0012008F80FB20
:03000000020003F8
:0C000300787FE4F6D8FD75810F02004AFA
:10000F000200BFE493A3F8E493A34003F68001F248
:10001F0008DFF48029E493A3F85407240CC8C333F2
:10002F00C4540F4420C8834004F456800146F6DFC1
:10003F00E4800B01020408102040809000B4E47E9D
:10004F00019360BCA3FF543F30E509541FFEE493B6
:10005F00A360010ECF54C025E060A840B8E493A37D
:10006F00FAE493A3F8E493A3C8C582C8CAC583CAA8
:10007F00F0A3C8C582C8CAC583CADFE9DEE780BE60
:0100BE000041
:00000001FF
