:0F0132000108FF0A09039F250D9949411F010983
:1000F200E4FDFCC3ED9FEC9E5019758901758CFCE3
:10010200758A18D28C308DFDC28DC28C0DBD000156
:030112000C80E07E
:0101150022C7
:10008F007FFFC2902094027F302095027F3120960F
:10009F00027F322097027F33D290C2912094027F49
:1000AF00342095027F352096027F362097027F37C6
:1000BF00D291C2922094027F382095027F392096E8
:1000CF00027F412097027F42D292C2932094027FF7
:1000DF00432095027F442096027F452097027F465A
:0200EF00D293AA
:0100F10022EC
:1001160075A0FF12008FAB07EBF460F77FFA7E0045
:0C0126001200F274D92BF8E6F5A080E777
:03000000020003F8
:0C000300787FE4F6D8FD75811202004AF7
:10000F00020116E493A3F8E493A34003F68001F2F0
:10001F0008DFF48029E493A3F85407240CC8C333F2
:10002F00C4540F4420C8834004F456800146F6DFC1
:10003F00E4800B0102040810204080900132E47E1E
:10004F00019360BCA3FF543F30E509541FFEE493B6
:10005F00A360010ECF54C025E060A840B8E493A37D
:10006F00FAE493A3F8E493A3C8C582C8CAC583CAA8
:10007F00F0A3C8C582C8CAC583CADFE9DEE780BE60
:0101410000BD
:00000001FF
