:0A01B400C2A18FB0C2A27F017E003D
:1001BE00758901E4FDFCC3ED9FEC9E5016758CFC19
:1001CE00758A18D28C308DFDC28DC28C0DBD00018A
:0301DE000C80E3AF
:0101E10022FB
:1001E200C2A37F647E001201BED2A31201BE30A45C
:0301F200FDAF90CE
:0101F50022E7
:0C01F600C2A01201B4D2A27F050201BE1B
:0C020200D2A01201B4D2A27F050201BEFE
:100170007F381201F67F0C1201F61201E2AB07ACD8
:1001800003E41200AD7B6F7A127903783F12000608
:100190001200E1AB077F011201F6EB75F00A84242F
:1001A00030FF120202EB75F00A84E5F02430FF12F2
:0401B000020280C601
:10000300020157EC5D046005E85904700302014DD9
:10001300120118580460F6EC4860F2EC7004FDFE1F
:10002300FF22C860DB2481C85009C39860025006D0
:100033000201549850CAF582E9294B4A7005AB82F4
:1000430002014375F0007C1A7880C3EF9BEE9AEDB2
:1000530099400DC3EF9BFFEE9AFEED99FDE842F048
:10006300DC23ACF0D0E0FFD0E0FED0E0FDAB82209B
:10007300E7101BEB60BAEC2CFCEF33FFEE33FEED25
:1000830033FD02012FE803F830E705C0F075F000F7
:10009300EF2FFFEE33FEED33FD40B830E7C280AA09
:1000A30075F020800E75F010800575F0087D007ED8
:1000B300007F003392D530D503120162EC33401038
:1000C300EF33FFEE33FEED33FDEC33FCD5F0ED22E1
:0E00D300E5F0247EA2D513CC92E7CDCEFF221D
:1000E100EDD2E7CD33EC3392D524814006E4FFFE17
:1000F100FDFC22FCE4CFCECDCC24E0501174FF8076
:10010100EDC3CC13CCCD13CDCE13CECF13CF047012
:07011100F030D5DE020162AF
:10011800E9D2E7C933E833F892D5EDD2E7CD33EC2D
:0701280033FC5002B2D522A6
:10012F00EC30E7100FBF000C0EBE00080DBD000431
:10013F000BEB6014A2D5EB13FCED92E7FD2274FFDD
:10014F00FCFDFEFF22E480F8A2D574FF13FC7D8036
:03015F00E480EF4A
:0300000002020EEB
:0C020E00787FE4F6D8FD758107020170CE
:0E016200C3E49FFFE49EFEE49DFDE49CFC22AE
:00000001FF
